:020000040800F2
:10000000881000209D010008F70F00083F0F00082E
:10001000F30F000843020008BD19000800000000AB
:100020000000000000000000000000009918000817
:100030004702000800000000FB170008F118000844
:10004000B7010008B7010008B7010008B7010008B0
:10005000B7010008B7010008B7010008B7010008A0
:10006000B7010008B7010008B7010008B701000890
:10007000B7010008B7010008B7010008B701000880
:10008000B7010008B7010008B7010008B701000870
:10009000B7010008B7010008B7010008B701000860
:1000A000B7010008B7010008B7010008B701000850
:1000B000B7010008B7010008B7010008B701000840
:1000C000B7010008B7010008B7010008B701000830
:1000D000B7010008B7010008B7010008B701000820
:1000E000B7010008B7010008B7010008B701000810
:1000F000B7010008B7010008B7010008B701000800
:10010000B7010008B7010008B7010008B7010008EF
:10011000B7010008B7010008B7010008B7010008DF
:10012000B7010008B7010008B7010008B7010008CF
:10013000B7010008B7010008B7010008B7010008BF
:10014000B7010008B7010008B7010008B7010008AF
:10015000B7010008B7010008B7010008B70100089F
:10016000B7010008B7010008B7010008B70100088F
:10017000B7010008B7010008B7010008000000003F
:10018000B7010008B7010008DFF80CD000F018F83C
:1001900000480047E1190008881000200648804701
:1001A00006480047FEE7FEE7FEE7FEE7FEE7FEE75C
:1001B000FEE7FEE7FEE7FEE76D190008890100088B
:1001C000064C074D06E0E06840F0010394E80700A4
:1001D00098471034AC42F6D3FFF7DAFF483A0008EC
:1001E000683A000870B58D1810F8014B14F003023E
:1001F00001D110F8012B231106D110F8013B03E0C7
:1002000010F8016B01F8016B521EF9D1ABB110F877
:10021000012B04F00C048A1A0C2C03D0A2EB8412DC
:100220009B1C08E010F8014BA2EB0422F8E712F83F
:10023000014B01F8014B5B1EF9D5A942D4D3002034
:1002400070BD00BFFEE7704770B5044600F014F9BA
:1002500006462546681C00B16D1C00BF00F00CF975
:10026000801BA842FAD370BD78B503460022E5E0B2
:10027000012696400D6805EA0604002C7DD04D68E5
:10028000022D02D04D68122D13D1D60803F120059E
:1002900055F826005507EE0E0F25B540A843560722
:1002A000F60E0D69B5402843D60803F1200545F840
:1002B0002600186856000325B540A8430D7905F0BF
:1002C00003055600B540284318604D68012D08D03D
:1002D0004D68022D05D04D68112D02D04D68122DAC
:1002E00013D1986856000325B540A8435600CD6841
:1002F000B54028439860586801259540A8430D797A
:10030000C5F300159540284358600D7905F00305A5
:10031000032D09D1D86A01259540A8430D79C5F36D
:10032000C00595402843D862D86856000325B540DB
:10033000A84356008D68B5402843D8604D6805F045
:100340008055B5F1805F78D100BF3F4D2D6E45F0EF
:1003500001053D4E356635462D6E05F001050095CB
:1003600000BF00BF4FEAB635960855F8260095073E
:100370002E0F0F25B540A84300E05EE0B3F1904F8B
:1003800001D100251EE0314DAB4201D1012519E01C
:100390002F4DAB4201D1022514E02E4DAB4201D1CD
:1003A00003250FE02C4DAB4201D104250AE02B4D73
:1003B000AB4201D1052505E0294DAB4201D106250F
:1003C00000E007259607360FB5402843254D9608CF
:1003D00045F82600244D2868A0434D6805F4803573
:1003E000B5F5803F00D120431F4D28602D1D2868A2
:1003F000A0434D6805F40035B5F5003F00D120431A
:10040000194D2D1D28602D1D2868A0434D6805F449
:100410008015B5F5801F00D12043134D08352860A5
:100420002D1D2868A0434D6805F40015B5F5001F83
:1004300000D120430C4D0C352860521C0D68D5406E
:10044000002D7FF415AF78BD001002400004004875
:1004500000080048000C0048001000480014004844
:100460000018004808000140000401400AB1816101
:1004700000E081627047000001480068704700009A
:100480000408002002480068401C014908607047C9
:100490000408002010B50024032000F065F80020B7
:1004A00000F008F808B1012401E000F01BF8204634
:1004B00010BD000070B504460025094800684FF4DF
:1004C0007A71B0FBF1F6304600F01BFD08B1012552
:1004D00004E000222146501E00F005F8284670BDB9
:1004E0000008002070472DE9F05F80460D46164653
:1004F000002700F081FD074639462A46334601F0C1
:100500000700C0F1070ABAF1040F02D94FF0040A3C
:1005100001E0C0F1070AD14600F1040ABAF1070F61
:1005200002D24FF0000A01E0A0F1030AD4464FF0D6
:10053000010A0AFA09FAAAF1010A0AEA020A0AFAFF
:100540000CFA4FF0010B0BFA0CFBABF1010B0BEAB1
:10055000030B4AEA0B042146404600F055FD00F02B
:1005600000B830BCBDE8C09F00BF00F00702064BDA
:1005700019684FF6FF031940044B0B4343EA02216D
:10058000014B196000BF70470CED00E00000FA0558
:100590000246B2F5007F2AD11D48006800F4C06011
:1005A000B0F5007F32D01A48006820F4C06040F4F3
:1005B0000070174B18601748006832235843164BD9
:1005C000B0FBF3F0411C00E0491E1148406900F403
:1005D0008060B0F5806F01D10029F5D10C484069E9
:1005E00000F48060B0F5806F10D103207047084898
:1005F000006800F4C060B0F5806F07D00448006860
:1006000020F4C06040F48060014B18600020EDE7EA
:10061000007000400008002040420F0002480068BF
:1006200000F4C06070470000007000402DE9F04108
:1006300004460D4614B90120BDE8F0815548006814
:1006400000F00700A8420ED25248006820F00700D0
:100650002843504908600846006800F00700A84297
:1006600001D00120E8E7207800F00100002840D008
:100670006068032806D14848006800F00070D8B9C7
:100680000120D9E76068022806D14348006800F4D9
:10069000003088B90120CFE7606830B93E48006873
:1006A00000F0020040B90120C6E73B48006800F4B2
:1006B000806008B90120BFE73748806820F0030058
:1006C0006168084334498860FFF7D6FE064608E0B3
:1006D000FFF7D2FE801B41F28831884201D9032006
:1006E000AAE72D48806800F00C006168B0EB810F2C
:1006F000EED1207800F00200022807D12648806859
:1007000020F0F000A1680843234988602148006870
:1007100000F00700A8420ED91E48006820F007002C
:1007200028431C4908600846006800F00700A842FA
:1007300001D0012080E7207800F00400042807D1D0
:100740001548806820F4E060E16808431249886039
:10075000207800F00800082808D10F48806820F4AD
:100760006050216940EAC1000B49886000F020F820
:1007700009498968C1F30311084A515C01F01F015E
:10078000C840074908600020FFF794FE0746384636
:1007900052E700000020024000100240F01B000859
:1007A0000008002001480068704700000008002091
:1007B0002DE9F04100240020DFF800C1DCF808C07A
:1007C0000CF00C01DFF8F4C0DCF80CC00CF00307EF
:1007D00019B10C291ED1012F1CD1DFF8E0C0DCF8C3
:1007E00000C00CF0080CBCF1000F06D1DFF8CCC043
:1007F000DCF894C0CCF3032405E0DFF8C0C0DCF8DB
:1008000000C0CCF30314DFF8B8C05CF8244041B951
:10081000204606E0042901D12A4802E0082900D137
:1008200029480C2947D1DFF894C0DCF80CC00CF043
:100830000305DFF888C0DCF80CC0CCF3021C0CF117
:100840000103012D1FD0022D02D0032D1AD10CE07F
:10085000DFF870C0BCFBF3FCDFF86080D8F80C80D8
:10086000C8F306280CFB08F218E0DFF85CC0BCFBFC
:10087000F3FCDFF84880D8F80C80C8F306280CFB9E
:1008800008F20BE000BFB4FBF3FCDFF83080D8F8CF
:100890000C80C8F306280CFB08F200BF00BFDFF88D
:1008A0001CC0DCF80CC0CCF3416C0CF1010C4FEA1D
:1008B0004C06B2FBF6F0BDE8F081000000100240EB
:1008C000081C00080024F40000127A002DE9F84307
:1008D000044614B90120BDE8F883F848806800F0A8
:1008E0000C06F648C06800F00307207800F01000FE
:1008F000102875D11EB10C2E74D1012F72D1EF4882
:10090000006800F0020018B1A06908B90120E2E710
:10091000EA48216A006800F0080020B1E748006852
:1009200000F0F00005E0E5489430006800F47060E5
:10093000000981421FD9206A00F060FF08B1012040
:10094000C9E700BFDD48006840F00800DB490860E7
:100950000846006820F0F000216A0843D749086083
:1009600000BF0846406820F47F40E16940EA01206A
:10097000D24948601EE000BFD048006840F008003F
:10098000CE4908600846006820F0F000216A08435C
:10099000CA49086000BF0846406820F47F40E1690A
:1009A00040EA0120C5494860206A00F027FF08B1ED
:1009B000012090E7FFF7FCFEC0498968C1F30311ED
:1009C000BF4A515C01F01F01C840BE4908600020C9
:1009D000FFF770FD8046B8F1000F4ED040467AE731
:1009E0004BE0FFE7A06980B3B448006840F0010025
:1009F000B2490860FFF740FD054606E0FFF73CFD01
:100A0000401B022801D9032065E7AC48006800F0CC
:100A100002000028F2D000BFA848006840F008009B
:100A2000A64908600846006820F0F000216A0843E3
:100A3000A249086000BF0846406820F47F40E16991
:100A400040EA01209D49486017E0FFE79B480068A5
:100A500020F0010099490860FFF70EFD054606E009
:100A6000FFF70AFD401B022801D9032033E7934812
:100A7000006800F002000028F2D1207800F00100A8
:100A800000285CD0082E03D00C2E0AD1032F08D1E9
:100A90008A48006800F4003088B3606878BB0120A1
:100AA00019E700BF6068B0F5803F06D18348006851
:100AB00040F48030814908601AE06068B0F5A02FEA
:100AC0000BD17E48006840F480207C4908600846CD
:100AD000006840F4803008600AE07848006820F43C
:100AE0008030764908600846006820F4802008605D
:100AF00000BF606890B1FFF7BFFC054607E01EE04D
:100B0000FFF7BAFC401B642801D90320E3E66B48D9
:100B1000006800F400300028F2D010E0FFF7ACFCD1
:100B2000054606E0FFF7A8FC401B642801D9032016
:100B3000D1E66248006800F400300028F2D1207845
:100B400000F00200022852D1042E03D00C2E14D142
:100B5000022F12D15948006800F4806018B1E06893
:100B600008B90120B7E65548406820F0F850217CCC
:100B700040EA01605149486039E0E06800B34F48FD
:100B8000006840F480704D490860FFF775FC054629
:100B900006E0FFF771FC401B022801D903209AE60A
:100BA0004648006800F480600028F2D0434840685E
:100BB00020F0F850217C40EA01604049486016E08E
:100BC0003E48006820F480703C490860FFF754FC00
:100BD000054606E0FFF750FC401B022801D9032020
:100BE00079E63648006800F480600028F2D1207869
:100BF00000F00800082836D16069D0B12F48943041
:100C0000006840F001002D49C1F89400FFF734FC62
:100C1000054606E0FFF730FC401B022801D90320FF
:100C200059E626489430006800F002000028F1D010
:100C300019E022489430006820F001001F49C1F8F3
:100C40009400FFF719FC054606E0FFF715FC401B72
:100C5000022801D903203EE618489430006800F0CD
:100C600002000028F1D1207800F00400042870D19F
:100C70004FF000091148806D00F0805078B900BF36
:100C80000E48806D40F080500C4988650846806DA4
:100C900000F08050009000BF00BF4FF001090A48EB
:100CA000006800F48070F0B90748006840F4807074
:100CB00005490860FFF7E0FB05460EE00010024022
:100CC000F01B00080008002000700040FFF7D4FB74
:100CD000401B022801D90320FDE57C48006800F490
:100CE00080700028F2D000BFA068012808D17848A1
:100CF000006840F0010076499039C1F8900021E089
:100D0000A06805280FD17248006840F004007049BF
:100D10009039C1F890000846D0F8900040F00100EA
:100D2000C1F890000EE06A48006820F001006849B0
:100D30009039C1F890000846D0F8900020F00400E7
:100D4000C1F8900000BFA068A0B1FFF795FB054671
:100D500009E02EE0FFF790FB401B41F2883188420A
:100D600001D90320B7E55A48006800F002000028C6
:100D7000F0D012E0FFF780FB054608E0FFF77CFBB0
:100D8000401B41F28831884201D90320A3E5504835
:100D9000006800F002000028F0D1B9F1010F07D17E
:100DA0004B489038806D20F08050494990398865D3
:100DB00000BFA06AF0B30C2E74D0A06A022853D1F1
:100DC00043489038006820F08070414990390860AD
:100DD000FFF752FB054606E0FFF74EFB401B0228DB
:100DE00001D9032077E53A489038006800F0007098
:100DF0000028F1D1206B401E0101606B41EA002107
:100E0000A06B000941EA4040E16A0843A18F01223A
:100E1000C2EB510140EA41514020005DC2EB50005D
:100E200041EA40602A499039C8600846006840F0AD
:100E3000807000E048E008600846C06840F08070BC
:100E4000C860FFF719FB054606E0FFF715FB401BDE
:100E5000022801D903203EE51D489038006800F0C3
:100E600000700028F1D02FE019489038006820F079
:100E700080701749903908600846006800F02050DB
:100E800020B90846C06820F00300C86010489038B8
:100E9000C068104908400E499039C860FFF7ECFA65
:100EA000054607E00EE0FFF7E7FA401B022801D9EC
:100EB000032010E506489038006800F00070002814
:100EC000F1D101E0012006E5002004E500700040BA
:100ED00090100240FFFFEEFE042808D14FF0E02101
:100EE000096941F004014FF0E022116107E04FF081
:100EF000E021096921F004014FF0E02211617047FF
:100F0000704770B504462546681EB0F1807F01D356
:100F100001200FE0681E4FF0E02148610F214FF0E3
:100F2000FF3000F071F800204FF0E02188610720C9
:100F30000861002070BD10B5FFF7E2FF10BD00BFD3
:100F4000FEE710B5012280214FF09040FFF78EFAA6
:100F5000012220214FF09040FFF788FA00F041F87D
:100F6000002280214FF09040FFF780FA00F039F81E
:100F7000002220214FF09040FFF778FA00F031F87E
:100F800010BD10B5002280214FF09040FFF76EFA9F
:100F9000012220214FF09040FFF768FA00F021F87D
:100FA000012280214FF09040FFF760FA10BD10B58C
:100FB000012280214FF09040FFF758FA00F011F81D
:100FC000012220214FF09040FFF750FA00F009F87D
:100FD000002220214FF09040FFF748FA00F001F87E
:100FE00010BD032000BF011EA0F10102D0B2FAD152
:100FF000704700BFFEE7704702480068C0F3022058
:10100000704700000CED00E010B5002807DA0A0771
:10101000140E054A00F00F031B1FD45403E00A0707
:10102000130E024A135410BD18ED00E000E400E076
:1010300070B500240CE0002506E00020074901EB14
:10104000C5010855681CC5B2802DF6DB601CC4B212
:10105000082CF0DB00F02CF970BD0000080800201F
:10106000F0B514460B46CF1701EB5777C7F3C7020D
:10107000CF1701EB5777FF10A1EBC707FEB2012393
:10108000B340DDB24CB1134B03EBC0039B5C2B436D
:10109000104F07EBC007BB541AE00E4B03EBC00325
:1010A0009B5CDB430B4F07EBC007BB54094B03EBC7
:1010B000C0039B5C2B43074F07EBC007BB54054B9A
:1010C00003EBC0039B5CDB43024F07EBC007BB5441
:1010D000F0BD00000808002000B587B000BF6B48D5
:1010E000C06C40F001006949C8640846C06C00F05B
:1010F0000100019000BF00BF00BF0846C06C40F077
:101100000400C8640846C06C00F00400019000BFF1
:1011100000BF00BF0846C06C40F00800C864084625
:10112000C06C00F00800019000BF00BFA02002903A
:1011300011200390012004900220059002A94FF095
:101140009040FFF791F80122A0214FF09040FFF767
:101150008DF94FF4805002900120039004900220FA
:10116000059002A94A48FFF77FF804200290012069
:10117000039004900220059002A94648FFF774F8F6
:10118000012204214348FFF771F90022042141485C
:10119000FFF76CF9C820FFF757F8012204213D48FA
:1011A000FFF764F90021AE2000F00BFB0021084698
:1011B00000F007FB0021102000F003FB002140207D
:1011C00000F0FFFA0021812000F0FBFA0021CF207F
:1011D00000F0F7FA0021A12000F0F3FA0021C82066
:1011E00000F0EFFA0021A62000F0EBFA0021A82081
:1011F00000F0E7FA00213F2000F0E3FA0021D320BD
:1012000000F0DFFA0021084600F0DBFA0021D520CB
:1012100000F0D7FA0021802000F0D3FA0021D92075
:1012200000F0CFFA0021F12000F0CBFA0021DA2003
:1012300000F0C7FA0021122000F0C3FA0021DB20E1
:1012400000F0BFFA0021402000F0BBFA002120206E
:1012500000F0B7FA0021022000F0B3FA00218D203F
:1012600000F0AFFA0021142000F0ABFA0021A42016
:1012700000F0A7FA0021A62000F0A3FAFFF7D8FE9D
:101280000021AF2000F09DFA07B000BD0010024021
:1012900000080048000C004810B50246012000E09C
:1012A00050430B1EA1F10104E1B2F9D110BD0000C1
:1012B00070B500242BE004F1B001C8B2002100F0A9
:1012C00080FA0021084600F07CFA0021102000F08E
:1012D00078FAFFF736FE782000F0DFFAFFF767FEB6
:1012E000402000F0DAFAFFF762FE002509E0094924
:1012F00001EBC501085D00F0D0FAFFF758FE681C4D
:10130000C5B2802DF3DBFFF73CFE601CC4B2082C95
:10131000D1DB70BD0808002008B58046894692469A
:10132000002600274BE04FB91023324618218020B9
:10133000CDF800A000F0E8F8701CC6B2464522D1F6
:101340004FF0000B1AE0012410E000250AE01C48D1
:1013500000EBC400415D601E194A02EBC00041551C
:10136000681CC5B2082DF2DB601CC4B2902CECDB0B
:10137000FFF79EFF0BF1010000F0FF0B4FEA091091
:101380005845E0DC0026781CC7B2102F00D100279A
:10139000012410E000250AE0094800EBC400415D8B
:1013A000601E074A02EBC0004155681CC5B2082DFB
:1013B000F2DB601CC4B2902CECDBFFF779FFB2E7E4
:1013C000080800202DE9FE4F0746884692461C4635
:1013D0000197CDF80080082C02D14FF006091FE0DC
:1013E0002046E31704EB5373DB1021464FEAE47CFD
:1013F00004EB5C7C4FEAEC0CA4EBCC0CBCF1000FD2
:1014000002D04FF0010C01E04FF0000C6344224683
:1014100004EBD27C4FEA6C0C03FB0CF303F0FF09E6
:10142000AAF12000C6B200255EE0082C07D106EB29
:1014300046002F4901EB400010F805B01DE00C2CD0
:1014400007D106EB46002B4901EB800010F805B0F0
:1014500013E0102C05D1284800EB061010F805B059
:101460000BE0182C07D106EBC600244901EB8000E5
:1014700010F805B001E000F043B8002002901CE035
:101480000BF0010028B1414638460C9AFFF7E8FD01
:1014900009E00C9808B9012000E00020024641460E
:1014A0003846FFF7DDFD4FEA6B0B08F1010000F055
:1014B000FF080298401CC0B2029002980828DFDBA7
:1014C000781CC7B2082C0BD004EBD4714A100199D8
:1014D000791A8A4204D1019F00980830C0B2009066
:1014E000DDF80080681CC5B24D459EDB00BFC2E739
:1014F000381C0008601E0008D4220008C428000818
:101500001EBCBDE8E08F00002DE9FC4F0746884671
:1015100016461C46BB46CDF804802046E21704EB75
:101520005272D2102146E31704EB5373DB10A4EB85
:10153000C3030BB1012300E000231A44624300926D
:10154000002554E0102C05D12B4800EB461010F874
:1015500005A01BE0182C07D106EBC600274901EBBC
:10156000C00010F805A011E0202C05D1244800EBA4
:10157000C61010F805A009E0402C05D1214800EB69
:10158000462010F805A001E000F03EB84FF0000939
:101590001CE00AF0010028B1414638460B9AFFF7DB
:1015A0005FFD09E00B9808B9012000E00020024629
:1015B00041463846FFF754FD4FEA6A0A08F1010038
:1015C00000F0FF0809F1010000F0FF09B9F1080F70
:1015D000DFDB781CC7B2A7EB0B00A04204D15F464B
:1015E00001980830C0B20190DDF804806D1C0098AD
:1015F0008542A7D300BFC7E7203600088037000820
:10160000C8370008483800081CBCBDE8E08F2DE949
:10161000FF4F82B0064691461F46DDE90F4A4FF064
:10162000000B082C01D14FF0020B002530E0781B95
:10163000401EC1B20A20FFF72FFEB9FBF0F00A21CD
:10164000B0FBF1F201FB1208B8F1000F0ED104EB70
:10165000D4710BEB610101FB0561C8B22346302256
:10166000CDE900A40399FFF7ADFE0FE004EBD471C0
:101670000BEB610101FB0561C8B208F13001CAB290
:101680002346CDE900A40399FFF79CFE681CC5B270
:10169000BD42CCDB06B000F000B830BCBDE8C08F66
:1016A0002DE9FF4F05460E4617461C46DDF83890DB
:1016B0004FF0000A0095B3462046E21704EB527241
:1016C000D2102146E31704EB5373DB10A4EBC303E2
:1016D0000BB1012300E000231A44D4B24FF00008FC
:1016E00043E00020039039E00D9810F80A000290C2
:1016F0000AF1010A002001901DE0029800F00100AB
:1017000028B14A4631462846FFF7AAFC0AE0B9F15B
:10171000000F01D1012000E000200246314628469A
:10172000FFF79EFC029840100290701CC6B2019810
:10173000401CC0B2019001980828DEDB681CC5B2CD
:101740000098281AB84204D1009D0BF1080000F05F
:10175000FF0B5E460398401CC0B203900398B8424A
:10176000C2DB08F1010000F0FF08A045B9DB00F082
:1017700000B81FBCBDE8E08F2DE9F84106460F46D2
:1017800014461D46DDF81C8013E0CDF80080227859
:101790002B4639463046FFF715FE082D02D1B01D05
:1017A000C6B205E0284605EBD07106EB6101CEB26A
:1017B000641C2078202802DB20787E28E5DDBDE847
:1017C000F88170B505460C46FFF7BBFB782000F0AA
:1017D00064F8FFF7ECFB1CB1402000F05EF802E07B
:1017E000002000F05AF8FFF7E2FB284600F055F819
:1017F000FFF7DDFBFFF7C5FB70BD7047F8B504468A
:1018000000262348806D00F0805018B1FEF706FFD7
:10181000054616E000BF1E48806D40F080501C4910
:1018200088650846806D00F08050009000BF00BFC2
:10183000FEF7F4FE05461648806D20F080501449EE
:101840008865B5F5007F07D1802C10D9A02C01D96F
:1018500002260CE001260AE0802C01D9032606E0CE
:10186000802C01D1022602E0702C00D1012609480B
:10187000006820F007003043064908600846006809
:1018800000F00700B04201D00120F8BD0020FCE7C5
:101890000010024000200240704770B50446002549
:1018A00023E004F0800030B1012280214FF090400D
:1018B000FEF7DCFD05E0002280214FF09040FEF7AE
:1018C000D5FDFFF78EFB012220214FF09040FEF75F
:1018D000CDFDFFF786FB002220214FF09040FEF760
:1018E000C5FD6006040E681CC5B2082DD9DB70BDAD
:1018F00010B5FEF7C7FDFFF71EFB10BD10B596B083
:10190000012005900004069002200F900321109101
:10191000012111911421129102211491159105A810
:10192000FEF7D4FF0F2000900320019000200290CA
:101930000390049004216846FEF778FE4FF400708F
:10194000FEF726FEFEF72EFF4FF47A71B0FBF1F49E
:101950002046FFF7D6FA0420FFF7BEFA0022114610
:10196000501EFEF7C0FD16B010BD00001048006804
:1019700040F470000E4908600E48006840F0010015
:101980000C49086000208860084600680A49084041
:10199000084908608814C8600846006820F4802060
:1019A000086000208861C8030149803908607047D9
:1019B00088ED00E000100240FFFFF6EA00BFFEE7FE
:1019C00002E008C8121F08C1002AFAD17047704708
:1019D000002001E001C1121F002AFBD17047000066
:1019E0001CB52024FEF756FDFFF788FFFFF774FBB8
:1019F0000022E1017048FEF739FDDBE001206F496C
:101A000040238022CDE9001000210846FFF748FE60
:101A1000FFF74EFC4FF4FA70FEF716FCFFF708FBD9
:101A2000012010230022114600901046FFF76CFDA4
:101A3000012010230246002100901220FFF764FDD0
:101A4000012010230222002100902420FFF75CFDDA
:101A5000012010230322002100903620FFF754FDBF
:101A6000012010230422002100904820FFF74CFDA4
:101A7000012010230522002100905A20FFF744FD89
:101A8000012010230622002100906C20FFF73CFD6E
:101A9000012010234AA2194600900820FFF76CFE8F
:101AA000012010234AA2202100901420FFF764FE99
:101AB0000120102349A2302100900020FFF75CFE96
:101AC0000120102347A2302100903F20FFF754FE51
:101AD000012010232246302100900846FFF772FCB7
:101AE000601CC4B27E2C00DD2024012010210323C1
:101AF0002246CDE9001030216720FFF788FDFFF76F
:101B0000D7FB4FF4FA70FEF79FFBFFF791FA012025
:101B100010230022114600901046FFF7F5FC01202B
:101B200018230022114600901020FFF7EDFC012041
:101B300020230022142100901820FFF7E5FC01204B
:101B400040230022114600901846FFF7DDFCFFF706
:101B5000AFFB4FF4FA70FEF777FBFFF769FA01204D
:101B6000082322A2002100900846FFF705FE01206D
:101B70000C231EA2082100900020FFF7FDFD01208C
:101B800010231AA2142100900020FFF7F5FD012078
:101B9000182316A2242100900020FFF7EDFDFFF787
:101BA00087FB4FF4FA70FEF74FFB012204210B2054
:101BB000FFF7B2FB22E70000000800480000002009
:101BC0005A484F4E474A494E475955414E0000002A
:101BD000323031342F30352F3031000041534349FA
:101BE000493A0000434F44453A0000004142430057
:101BF00000000000000000000102030406070809BD
:101C00000000000001020304A0860100400D030053
:101C1000801A060000350C0040420F0080841E0030
:101C200000093D0000127A000024F40000366E0125
:101C30000048E801006CDC02000000000000000029
:101C4000002F000000000700070000147F147F141D
:101C500000242A7F2A1200626408132300364955A3
:101C6000225000000503000000001C22410000007B
:101C700041221C000014083E08140008083E080811
:101C8000000000A06000000808080808000060606C
:101C90000000002010080402003E5149453E0000AB
:101CA000427F4000004261514946002141454B318D
:101CB000001814127F10002745454539003C4A4959
:101CC00049300001710905030036494949360006CB
:101CD0004949291E00003636000000005636000033
:101CE00000081422410000141414141400004122AE
:101CF000140800020151090600324959513E007C86
:101D00001211127C007F49494936003E414141226F
:101D1000007F4141221C007F49494941007F090958
:101D20000901003E4149497A007F0808087F000008
:101D3000417F4100002040413F01007F08142241C3
:101D4000007F40404040007F020C027F007F04087B
:101D5000107F003E4141413E007F09090906003ED7
:101D60004151215E007F0919294600464949493100
:101D70000001017F0101003F4040403F001F204023
:101D8000201F003F4038403F0063140814630007E1
:101D90000870080700615149454300007F41410038
:101DA00000552A552A55000041417F0000040201D8
:101DB00002040040404040400000010204000020B6
:101DC00054545478007F48444438003844444420F4
:101DD00000384444487F00385454541800087E09A1
:101DE00001020018A4A4A47C007F08040478000069
:101DF000447D4000004080847D00007F1028440026
:101E00000000417F4000007C04180478007C080436
:101E1000047800384444443800FC24242418001872
:101E2000242418FC007C080404080048545454205E
:101E300000043F444020003C4040207C001C2040E7
:101E4000201C003C4030403C004428102844001C2A
:101E5000A0A0A07C004464544C4414141414141422
:101E60000000000000000000000000000000FC0076
:101E70000000000002000000000C020C0200000044
:101E80000000000090D0BCD0BC9000030003000014
:101E90001824FE448C000302070201001824D8B065
:101EA0004C80000300010201C038E438E000010268
:101EB000020102020806000000000000000000000D
:101EC000000000F80402000000010204000204F80F
:101ED00000000004020100009060F8609000000023
:101EE000010000002020FC20200000000100000074
:101EF0000000000000000806000000002020202054
:101F000020000000000000000000000000000002AF
:101F1000000000000080601C0200040300000000BC
:101F2000F8040404F8000102020201000008FC00A9
:101F30000000000203020000188444241800030279
:101F40000202020008042424D80001020202010057
:101F500040B088FC80000000000302003C242424E0
:101F6000C400010202020100F824242CC000010276
:101F7000020201000C04E41C040000000300000045
:101F8000D8242424D8000102020201003844444429
:101F9000F800000302020100000010000000000031
:101FA0000200000000002000000000000600000009
:101FB00000205088040200000000010290909090E0
:101FC0009000000000000000000204885020000281
:101FD000010000001804C4241800000002000000E2
:101FE000F804E494F80001020202020000E09CF010
:101FF000800002030000030204FC2424D800020332
:1020000002020100F80404040C00010202020100B3
:1020100004FC0404F80002030202010004FC24741E
:102020000C0002030202030004FC24740C000203EF
:1020300002000000F0080444CC400001020201004C
:1020400004FC2020FC040203000003020404FC043E
:102050000400020203020200000404FC040406045B
:102060000403000004FC24D00C0402030200030259
:1020700004FC04000000020302020203FC3CC03C1A
:10208000FC0003000300030004FC30C4FC04020352
:1020900002000300F8040404F80001020202010037
:1020A00004FC24241800020302000000F8848404C5
:1020B000F80001020207050004FC246498000203F2
:1020C00002000302182424448C00030202020100CF
:1020D0000C04FC040C0000020302000004FC0000DD
:1020E000FC04000102020100047C80E01C040000EA
:1020F000030000001CE03CE01C00000300030000A3
:10210000049C609C0400020300030200041CE01C09
:1021100004000002030200000C84641C040002039B
:10212000020203000000FE02020000000704040097
:10213000000E30C00000000000010200000202FE9C
:102140000000000404070000000402040000000076
:10215000000000000000000000000808080808084F
:102160000000020000000000000000000040A0A0ED
:10217000C00000010202030204FC2020C000000392
:102180000202010000C020206000000102020200E3
:1021900000C02024FC0000010202030200C0A0A035
:1021A000C0000001020202000020F8242404000202
:1021B000030202000040A0A0602000070A0A0A04EF
:1021C00004FC2020C0000203020003020020E400FF
:1021D0000000000203020000000020E400000808E4
:1021E0000807000004FC80E0202002030200030234
:1021F0000404FC000000020203020200E020E020D0
:10220000C00003000300030020E02020C000020300
:102210000200030200C02020C000000102020100F1
:1022200020E02020C000080F0A02010000C020208A
:10223000E0000001020A0F0820E040202000020315
:10224000020000000060A0A02000000202020300C3
:102250000020F820000000000102020020E0002021
:10226000E00000010202030220E020806020000064
:10227000030100006080E0806000000300030000B4
:1022800020608060200002030003020020E0208024
:1022900060200808070100000020A0602000000264
:1022A00003020200000020DE02000000000704001C
:1022B000000000FF00000000000F00000002DE2010
:1022C00000000004070000000201020404020000F4
:1022D00000000000000000000000000000000000FE
:1022E00000000000000000F80000000000000033C3
:1022F0003000000000100C06100C0600000000006A
:102300000000000040C07840C0784000043F040452
:102310003F040400007088FC08300000001820FF13
:10232000211E0000F008F000E018000000211C034E
:102330001E211E0000F00888700000001E212324CA
:102340001927211010160E000000000000000000E8
:1023500000000000000000E0180402000000000778
:102360001820400000020418E0000000004020187F
:1023700007000000404080F0804040000202010F52
:1023800001020200000000F0000000000101011F36
:1023900001010100000000000000000080B070009A
:1023A000000000000000000000000000000101012A
:1023B00001010101000000000000000000303000B9
:1023C0000000000000000000806018040060180693
:1023D0000100000000E010080810E000000F1020CD
:1023E00020100F00001010F8000000000020203F17
:1023F00020200000007008080888700000302824A1
:102400002221300000300888884830000018202041
:1024100020110E000000C02010F800000007042466
:10242000243F240000F808888808080000192120AB
:1024300020110E0000E0108888180000000F112005
:1024400020110E0000380808C83808000000003FBE
:10245000000000000070880808887000001C22211D
:1024600021221C0000E010080810E00000003122CA
:1024700022110F00000000C0C0000000000000306A
:1024800030000000000000800000000000008060BC
:10249000000000000000804020100800000102043D
:1024A0000810200040404040404040000404040424
:1024B00004040400000810204080000000201008E0
:1024C00004020100007048080808F0000000003015
:1024D00036010000C030C828E810E00007182724A3
:1024E00023140B000000C038E0000000203C230251
:1024F0000227382008F8888888700000203F2020B4
:1025000020110E00C03008080808380007182020E5
:102510002010080008F808080810E000203F2020DC
:1025200020100F0008F88888E8081000203F2020BD
:102530002320180008F88888E8081000203F2000B1
:1025400003000000C03008080838000007182020E9
:10255000221E020008F808000008F808203F2101A8
:1025600001213F20000808F8080800000020203F53
:102570002020000000000808F8080800C0808080C3
:102580007F00000008F888C028180800203F2001BC
:102590002638200008F8080000000000203F202016
:1025A0002020300008F8F800F8F80800203F003F2D
:1025B000003F200008F830C00008F808203F200045
:1025C00007183F00E01008080810E0000F10202056
:1025D00020100F0008F808080808F000203F21012B
:1025E00001010000E01008080810E0000F18242482
:1025F00038504F0008F8888888887000203F2000F5
:10260000030C3020007088080808380000382021AA
:1026100021221C00180808F8080818000000203FB4
:102620002000000008F808000008F808001F20201B
:1026300020201F000878880000C8380800000738EC
:102640000E010000F80800F80008F800033C07003D
:10265000073C0300081868808068180820302C03A5
:10266000032C30200838C800C83808000000203F7C
:102670002000000010080808C8380800203826216B
:1026800020201800000000FE020202000000007F6F
:1026900040404000000C30C000000000000000017D
:1026A0000638C00000020202FE0000000040404068
:1026B0007F0000000000040202020400000000008D
:1026C000000000000000000000000000808080800A
:1026D00080808080000202040000000000000000F2
:1026E000000000000000808080800000001924228B
:1026F00022223F2008F8008080000000003F1120C7
:1027000020110E000000008080800000000E1120CB
:1027100020201100000000808088F800000E1120A9
:1027200020103F200000808080800000001F2222B7
:1027300022221300008080F0888888180020203F23
:10274000202000000000808080808000006B949436
:102750009493600008F8008080800000203F2100F2
:1027600000203F2000809898000000000020203FBB
:1027700020200000000000809898000000C08080A9
:10278000807F000008F8000080808000203F240245
:102790002D302000000808F8000000000020203F35
:1027A000202000008080808080808000203F2000EA
:1027B0003F20003F8080008080800000203F21007B
:1027C00000203F200000808080800000001F20202B
:1027D00020201F00808000808000000080FFA1205A
:1027E00020110E000000008080808000000E11206B
:1027F00020A0FF80808080008080800020203F21FA
:1028000020000100000080808080800000332424AC
:1028100024241900008080E0808000000000001F58
:10282000202000008080000000808000001F202009
:1028300020103F20808080000080808000010E30CA
:102840000806010080800080008080800F300C032B
:102850000C300F0000808000808080000020312E2E
:102860000E312000808080000080808080818E700A
:102870001806010000808080808080000021302CBC
:102880002221300000000000807C020200000000D5
:10289000003F404000000000FF000000000000007A
:1028A000FF0000000002027C800000000040403F6A
:1028B0000000000000060101020204040000000004
:1028C0000000000000000000000000000000000008
:1028D00000000000000000000000000000000000F8
:1028E00000000000000000000000000000F0F0F018
:1028F000000000000000000000017F010000000057
:1029000000000000001C1C1C000000000000806093
:10291000301C8C60301C0C00000000000000000027
:1029200000000000000000000000000000000000A7
:10293000000000E00000000000E000000086E69FCC
:1029400086868686E69F860000011F01010101013F
:102950001F010100000080C06020F820E0C00000DE
:10296000000003070C18FF70E18100000000070F52
:1029700010107F100F0700008060206080000000B2
:10298000E02000000F3020309F70DC371030C00096
:102990000000100E03000718101807000000C020E8
:1029A00020E0C0000000000080E01F38E88703C47A
:1029B0003C040000070F1810100B070D1010080042
:1029C00000808C4C38000000000000000000000077
:1029D00000000000000000000000000000000000F7
:1029E0000000000000000000000080E0300804004B
:1029F0000000000000FEFF010000000000000000D9
:102A00000000030F1820400000040830E0800000A0
:102A1000000000000000000001FFFE0000000000B8
:102A2000004020180F03000000000000000000001C
:102A30000000C00000000000004266663C18FF185D
:102A40003C66664200000000000003000000000039
:102A500000000000000080000000000000101010C6
:102A60001010FF10101010100000000000000300F4
:102A70000000000000000000000000000000000056
:102A800000000000000000000000000000808C4CEE
:102A900038000000000000000000000000000000FE
:102AA0000000000000101010101010101010100086
:102AB0000000000000000000000000000000000016
:102AC0000000000000000000000000000000000006
:102AD0000000000000001C1C1C00000000000000A2
:102AE0000000000000000000E0380C0000000000C2
:102AF00080701C03000000000060380E0100000020
:102B000000000000000080C060202060C080000045
:102B100000FEFF010000000001FFFE000001070EA3
:102B2000181010180E0701000000808080C0E0001F
:102B3000000000000000000000FFFF000000000097
:102B400000001010101F1F10101000000080402007
:102B500020202060C0800000000303008040203857
:102B60001F070000001C1A1918181818181F000059
:102B70000080C020202060C080000000000303000F
:102B80001010182FE780000000070F101010101809
:102B90000F070000000000000000C0E0F00000008F
:102BA00000C0B088868180FFFF80800000000000A8
:102BB0000010101F1F1010000000E06060606060D7
:102BC0006060000000003F1008080818F0E00000F6
:102BD00000070B101010101C0F030000000080C035
:102BE00040202020E0C0000000FCFF211008080861
:102BF00018F0E0000001070C18101010080F030077
:102C00000000C0E06060606060E060000000030001
:102C10000000E0180700000000000000001F1F0077
:102C2000000000000080C0602020202060C08000E4
:102C30000087EF2C1818303068CF830000070F088A
:102C400010101010180F07000000C0C02020202016
:102C5000C0800000001F3F604040402010FFFE0089
:102C600000000C1C101010080F03000000000000F2
:102C7000000000000000000000000000000E0E0E2A
:102C80000000000000000000001C1C1C00000000F0
:102C90000000000000000000000000000000000034
:102CA000000C0C000000000000000000005838007C
:102CB0000000000000000000000000804020100024
:102CC0000000102844820100000000000000000005
:102CD00000000102040810000000000000000000D5
:102CE00000000000008484848484848484848400BC
:102CF00000000000000000000000000000001020A4
:102D00004080000000000000000000000000018280
:102D10004428100000001008040201000000000018
:102D200000C020201010101030E0C000000303008D
:102D300000F010080C070300000000001C1C1C0021
:102D400000000000000000C0406020202040C000C3
:102D500000FCFF01F00E03C1FE03807F0001070E9F
:102D600008111110110904020000000080E0E000C9
:102D7000000000000000807C4340477FF880000096
:102D800010181F1000000000131F1C1020E0E0208E
:102D900020202060C080000000FFFF1010101018DD
:102DA0002FE78000101F1F1010101010180F0700C1
:102DB000000080C0402020202060E00000FCFF01D7
:102DC00000000000000001000001070E18101010A4
:102DD0000804030020E0E02020202040C080000004
:102DE00000FFFF000000000001FFFE00101F1F1089
:102DF000101018080E07010020E0E02020202020FD
:102E00002060800000FFFF101010107C0000000008
:102E1000101F1F10101010101018060020E0E020E6
:102E2000202020206060800000FFFF101010107C28
:102E300000000100101F1F10000000000000000033
:102E4000000080C06020202040E0000000FCFF0166
:102E500000004040C0C140400001070E1810101093
:102E60000F0F000020E0E0200000000020E0E02044
:102E700000FFFF101010101010FFFF00101F1F1098
:102E800000000000101F1F100000202020E0E020A4
:102E9000202000000000000000FFFF0000000000F4
:102EA00000001010101F1F10101000000000000084
:102EB000202020E0E020202000000000000000FF93
:102EC000FF0000000060E0808080C07F3F000000C5
:102ED00020E0E020000020A06020200000FFFF3064
:102EE000187CE3C000000000101F1F100000011339
:102EF0001F1C181020E0E02000000000000000006F
:102F000000FFFF000000000000000000101F1F1065
:102F1000101010101018060020E0E0E00000000083
:102F2000E0E0E02000FF013FFEC0E01E01FFFF00E7
:102F3000101F1000031F0300101F1F1020E0E0C02F
:102F4000000000000020E02000FF0003071C78E0E4
:102F50008000FF00101F100000000000030F1F0082
:102F6000000080C060202060C080000000FEFF01E3
:102F70000000000000FFFE000001070E18101018EE
:102F80000C07010020E0E0202020202060C080000D
:102F900000FFFF2020202020301F0F00101F1F10D7
:102FA0000000000000000000000080C060202060E1
:102FB000C080000000FEFF010000000000FFFE00D6
:102FC0000001070E1111133C7C67210020E0E02076
:102FD0002020202060C0800000FFFF101030F0D0C3
:102FE000080F0700101F1F10000000030F1C101017
:102FF0000080C060202020204040E00000070F0C2F
:103000001818303060E08100001F0C0810101010FC
:10301000180F07008060202020E0E0202020608042
:103020000100000000FFFF000000000100000000A0
:10303000101F1F100000000020E0E0200000000032
:103040000020E02000FFFF00000000000000FF0063
:1030500000070F1810101010100807002060E0E0A3
:103060002000000020E060200000077FF880008042
:103070007C03000000000000071F1C070000000088
:1030800020E0E02000E0E0200020E0200007FFF842
:10309000E01FFFFCE01F00000000031F0300011FF2
:1030A00003000000002060E0A0000020E06020009D
:1030B000000000038F7CF8C6010000000010181EFD
:1030C000130001171F1810002060E0E0200000002E
:1030D00020E06020000001073EF8E0180700000033
:1030E00000000010101F1F10100000000080602062
:1030F000202020A0E0E0200000000000C0F03E0FF3
:103100000300000000101C1F1710101010180600FC
:103110000000000000FC040404040400000000009F
:1031200000FF00000000000000000000007F4040A1
:1031300040404000000010E00000000000000000DF
:1031400000000000031C6080000000000000000080
:10315000000000030C70800000000404040404FC60
:103160000000000000000000000000FF0000000060
:10317000000040404040407F000000000000001080
:10318000080C040C08100000000000000000000003
:10319000000000000000000000000000000000002F
:1031A000000000000000000000000000000000001F
:1031B000000000000000000080808080808080800F
:1031C00080808080000000040408080000000000E7
:1031D00000000000000000000000000000000000EF
:1031E00000000000000000000000000000000000DF
:1031F00000000000000098D844642424FCF800007B
:10320000000F1F18101010081F1F10180020E0F0EA
:1032100000000000000000000000FFFF1808040488
:103220000CF8F00000001F0F18101010180F03000A
:1032300000000000000000000000000000E0F8189E
:103240000404043C3800000000030F0C10101010A0
:10325000080600000000000000000020E0F0000070
:1032600000E0F81C04040408FFFF000000030F182E
:10327000101010081F0F08000000000000000000E0
:10328000000000000000E0F8484444444C7870001E
:103290000000030F0C1810101008040000000000BC
:1032A00080C0602020E0C00000040404FFFF04048C
:1032B00004040000000010101F1F10101000000078
:1032C000000000000000000000000000000070F896
:1032D0008C04048CF874040C007076CF8D8D8D896D
:1032E000C87870000020E0F000000000000000003E
:1032F0000000FFFF08040404FCF8000000101F1F7A
:10330000100000101F1F100000000000006060008F
:10331000000000000000040404FCFC0000000000A9
:1033200000001010101F1F101010000000000000FF
:10333000000000606000000000000000040404FCC5
:10334000FC0000000000C0C08080C07F3F00000083
:103350000020E0F000000000000000000000FFFF7F
:1033600080C0F41C0404000000101F1F1100031F84
:103370001C1010000000202020E0F00000000000E1
:103380000000000000FFFF0000000000000010101F
:10339000101F1F10101000000000000000000000AF
:1033A0000000000004FCFC0804FCFC0804FCFC0019
:1033B000101F1F10001F1F10001F1F100000000013
:1033C00000000000000000000004FCFC08080404E9
:1033D000FCF8000000101F1F100000101F1F10003D
:1033E00000000000000000000000000000E0F018F5
:1033F0000C04040C18F0E00000030F0C1010101067
:103400000C0F03000000000000000000000000009E
:103410000004FCFC080404040CF8F0000080FFFF2A
:10342000889010101C0F0300000000000000000036
:103430000000000000E0F81C04040408F8FC000090
:1034400000030F1810109088FFFF8000000000009C
:103450000000000000000000040404FCFC1008044C
:10346000040C0C001010101F1F10101000000000A2
:1034700000000000000000000000000000003078A4
:10348000CCC48484840C1C0000001E181010101181
:10349000190F06000000000000C00000000000003E
:1034A00000040404FFFF0404040000000000000006
:1034B0000F1F1010100C00000000000000000000A2
:1034C000000000000004FCFE00000004FCFE000000
:1034D00000000F1F181010081F0F08000000000048
:1034E000000000000000000000040C3CFCC40000D0
:1034F000C43C0C0400000000010F1E0E010000007F
:10350000000000000000000000000000043CFCC4BB
:1035100000E47CFC84807C040000071F0700000797
:103520001F07000000000000000000000000000075
:103530000004041C7CE4C0341C0404000010101CB3
:103540001601131F1C1810000000000000000000EE
:103550000000000000040C3CFCC400C43C04040057
:103560000000C080C1370E01000000000000000014
:10357000000000000000000000001C0404C4F47CF3
:103580001C0400000000101C1F17111010180E0062
:1035900000000000000000F80C0400000000000023
:1035A000001028EF00000000000000000000003FB5
:1035B00060400000000000000000FF00000000006C
:1035C000000000000000FF000000000000000000FC
:1035D0000000FF00000000000000040CF8000000E4
:1035E0000000000000000000EF28100000000000B4
:1035F000000040603F0000000000000000180602CC
:103600000204081020203008000000000000000024
:1036100000000000000000000000000000000000AA
:103620000000F010101010FF10101010F00000003B
:1036300000000F04040404FF040404040F0000004D
:103640004040405F555555755555555F40404000C9
:103650000040200F094989790909090F204000001D
:1036600000FE02424ACA4A4ACA4A4A4202FE0000D0
:1036700000FF40504C4340404F50505C40FF000022
:103680000000F888888888FF88888888F80000000B
:1036900000001F080808087F888888889F80F0003D
:1036A00080828282828282E2A2928A8682808000E6
:1036B000000000000040807F0000000000000000CB
:1036C000101010FF109008888888FF8888880800EC
:1036D0000444827F01808040432C10284681800072
:1036E0000010101010D030FF30D0121C101000004D
:1036F00010080402010000FF00000102040810008D
:1037000004040484E43C2724242424E40404040062
:1037100004020100FF0909090949897F000000002E
:1037200000FE225A8600FE9292929292FE000000C3
:1037300000FF04080700FF4020030C142241400052
:1037400000804020180680000718204080000000FC
:10375000010020702826212020243860000101006B
:10376000001012929292929292121202FE000000A7
:103770000000003F101010103F0040807F0000004C
:10378000000000C080808080808080FC84808080F9
:10379000808080C0C0000000000000FF7F404040EB
:1037A000404040FF40404040404040FF7F0000001C
:1037B00000000000000000000000007F700000001A
:1037C00000000000000000000000000000000000F9
:1037D00000000000000000FCF800000000000000F5
:1037E000000000000000000000000000FFFE0202D8
:1037F00002020202020202FFFF02020202020202AF
:103800000202FF0300000000000000001F1F04046C
:1038100004040404040404FFFF0404040404040472
:1038200004041F0000000000000000000000000071
:10383000000000000000007F3F00000000000000CA
:103840000000000000000000000000000000000078
:103850000000000000000000000000000000000068
:103860000000000000F8F8F0F070200000000000F8
:103870000000000000000000000000000000000048
:103880000000000000000000000000000000000038
:1038900080000000000000000000000000000000A8
:1038A0000000000000FFFFFFFF000000000000001C
:1038B0000000000000000000000000008080000008
:1038C00000000000000000000000000000000000F8
:1038D00000FFFFFE060606060606060606060606A4
:1038E0000606060606FFFFFFFF0606060606060694
:1038F0000606060606060606060606FFFFFFFF0783
:1039000002000000000000000000000000000000B5
:1039100000FFFFFF000000000000000000000000AA
:103920000000000000FFFFFFFF000000000000009B
:103930000000000000000000000000FFFFFFFF008B
:103940000000000000000000000000000000000077
:1039500000FFFFFF1818181818181818181818184A
:103960001818181818FFFFFFFF181818181818183B
:103970001818181818181818181818FFFFFFFF0043
:103980000000000000000000000000000000000037
:103990000201010000000000000000000000000023
:1039A0000000000000FFFFFFFF000000000000001B
:1039B0000000000000000000000000010100000005
:1039C00000000000000000000000000000000000F7
:1039D00000000000000000000000000000000000E7
:1039E0000000000000FFFFFFFF00000000000000DB
:1039F00000000000000000000000000000000000C7
:103A000000000000000000000000000000000000B6
:103A100000000000000000000000000000000000A6
:103A200000000000001F1F0F0F000000000000003A
:103A30000000000000000000000000000000000086
:103A40000000000000000000683A000800000020AC
:103A500008080000E4010008503C000808080020A5
:103A600080080000D019000840120003050911FF6A
:103A7000118905C300E000F000F8000100083A4495
:103A800028FF11AA440001500B830138448292920E
:103A90007401831120087C44FF017D7D7D04410574
:103AA00040047D01FF6E920102613F033B01017EF4
:103AB00081419149F20101011BC230083F3F0303DC
:103AC000F3131101100601F111618140200581619C
:103AD00011F14733414107200401C12120A321C135
:103AE0001431193137040736D33303033F3F4260A3
:103AF00006E0E000007FA8127FBF40040618060A17
:103B00001008000040407F4040A410041F204001E6
:103B1000A3201F143300600E6004300C03460534EC
:103B2000C2100407070601700904040484444444D5
:103B3000840780050484C4041501120A7111214010
:103B4000073D0707C9200F000010181412110000CC
:103B50000F1010100F0F131F1015600D0810121208
:103B60000D00001800000D120A51295130015E01AC
:103B7000528001013B4514047F030CA915DE1C058E
:103B8000385454582503080A2004047800003C40A7
:103B9000407C2000092CFFAAAAAA280800FF681070
:103BA000062649494932101005020408100F0D6F0E
:103BB00000049D01040D9D0004156343F8080124D1
:103BC0000500F81860E82404806018235720202995
:103BD00023E01021A310E01449B4313908043C88D3
:103BE0006818630D15FF037DEA039DFF0371144DF3
:103BF000FF031D06043D2E040942E91C0640202057
:103C000020C04A04110721EA3E40520452600E814E
:103C100018712951070D4769031C060C0A0A090C83
:103C20000004156B2D00042004080F08151005086A
:103C300009090E071D180430050909090F0A512941
:103C400051070DFF00040D22000437093D29000033
:040000050800018965
:00000001FF
