:100003000000000000000000002F000000000700B7
:10001300070000147F147F1400242A7F2A12006231
:1000230064081323003649552250000005030000DD
:1000330000001C224100000041221C000014083E65
:1000430008140008083E0808000000A0600000082B
:10005300080808080000606000000020100804027F
:10006300003E5149453E0000427F4000004261513D
:100073004946002141454B31001814127F100027D7
:1000830045454539003C4A4949300001710905039A
:1000930000364949493600064949291E00003636CB
:1000A300000000005636000000081422410000142E
:1000B300141414140000412214080002015109060B
:1000C30000324959513E007C1211127C007F49498C
:1000D3004936003E41414122007F4141221C007FBD
:1000E30049494941007F09090901003E4149497ACB
:1000F300007F0808087F0000417F41000020404145
:100103003F01007F08142241007F40404040007FB0
:10011300020C027F007F0408107F003E4141413EF4
:10012300007F09090906003E4151215E007F09193C
:1001330029460046494949310001017F0101003F39
:100143004040403F001F2040201F003F4038403FB9
:10015300006314081463000708700807006151491D
:10016300454300007F41410000552A552A550000B0
:1001730041417F000004020102040040404040402E
:10018300000001020400002054545478007F4844C6
:10019300443800384444442000384444487F0038FD
:1001A3005454541800087E0901020018A4A4A47C26
:1001B300007F080404780000447D400000408084F0
:1001C3007D00007F102844000000417F4000007C38
:1001D30004180478007C0804047800384444443844
:1001E30000FC242424180018242418FC007C080490
:1001F300040800485454542000043F444020003C69
:100203004040207C001C2040201C003C4030403CEF
:10021300004428102844001CA0A0A07C004464547F
:100223004C441414141414140000000000000000C3
:100233000000000000000000000000F800000000C3
:10024300000000333000000000100C06100C060004
:10025300000000000000000040C07840C07840006B
:10026300043F04043F040400007088FC08300000CD
:10027300001820FF211E0000F008F000E018000025
:1002830000211C031E211E0000F0088870000000DE
:100293001E2123241927211010160E000000000030
:1002A3000000000000000000000000E0180402004D
:1002B300000000071820400000020418E0000000BE
:1002C3000040201807000000404080F080404000BC
:1002D3000202010F01020200000000F00000000012
:1002E3000101011F010101000000000000000000E6
:1002F30080B070000000000000000000000000005B
:1003030000010101010101010000000000000000E3
:10031300003030000000000000000000806018047E
:10032300006018060100000000E010080810E0005B
:10033300000F102020100F00001010F80000000024
:100343000020203F2020000000700808088870006B
:1003530000302824222130000030088888483000EB
:100363000018202020110E000000C02010F800000B
:1003730000070424243F240000F8088888080800A4
:100383000019212020110E0000E0108888180000B9
:10039300000F112020110E0000380808C83808008B
:1003A3000000003F0000000000708808088870000B
:1003B300001C222121221C0000E010080810E0008C
:1003C3000000312222110F00000000C0C000000015
:1003D300000000303000000000000080000000003A
:1003E3000000806000000000000080402010080032
:1003F30000010204081020004040404040404000FB
:1004030004040404040404000008102040800000D5
:100413000020100804020100007048080808F000DA
:100423000000003036010000C030C828E810E000AA
:100433000718272423140B000000C038E000000035
:10044300203C23020227382008F88888887000009F
:10045300203F202020110E00C03008080808380073
:10046300071820202010080008F808080810E000EA
:10047300203F202020100F0008F88888E80810008B
:10048300203F20202320180008F88888E80810005F
:10049300203F200003000000C03008080838000097
:1004A30007182020221E020008F808000008F80898
:1004B300203F210101213F20000808F8080800001F
:1004C3000020203F2020000000000808F808080052
:1004D300C08080807F00000008F888C028180800CA
:1004E300203F20012638200008F808000000000003
:1004F300203F20202020300008F8F800F8F80800FA
:10050300203F003F003F200008F830C00008F808F3
:10051300203F200007183F00E01008080810E00003
:100523000F10202020100F0008F808080808F0001A
:10053300203F210101010000E01008080810E0003D
:100543000F18242438504F0008F8888888887000D2
:10055300203F2000030C3020007088080808380072
:100563000038202121221C00180808F80808180068
:100573000000203F2000000008F808000008F808E9
:10058300001F202020201F000878880000C838089A
:10059300000007380E010000F80800F80008F80012
:1005A300033C0700073C03000818688080681808AC
:1005B30020302C03032C30200838C800C83808002A
:1005C3000000203F2000000010080808C838080079
:1005D3002038262120201800000000FE020202001D
:1005E3000000007F40404000000C30C000000000CD
:1005F300000000010638C00000020202FE000000F5
:10060300004040407F00000000000402020204009A
:1006130000000000000000000000000000000000D7
:1006230080808080808080800002020400000000BF
:1006330000000000000000000000808080800000B7
:100643000019242222223F2008F8008080000000A5
:10065300003F112020110E00000000808080000068
:10066300000E112020201100000000808088F80077
:10067300000E112020103F200000808080800000A9
:10068300001F222222221300008080F0888888180D
:100693000020203F20200000000080808080800018
:1006A300006B94949493600008F8008080800000AD
:1006B300203F210000203F20008098980000000088
:1006C3000020203F202000000000008098980000B8
:1006D30000C08080807F000008F8000080808000D8
:1006E300203F24022D302000000808F800000000FD
:1006F3000020203F202000008080808080808000B8
:10070300203F20003F20003F808000808080000049
:10071300203F210000203F200000808080800000D7
:10072300001F202020201F00808000808000000008
:1007330080FFA12020110E00000000808080800037
:10074300000E112020A0FF80808080008080800028
:1007530020203F2120000100000080808080800055
:100763000033242424241900008080E080800000CA
:100773000000001F20200000808000000080800017
:10078300001F202020103F20808080000080808078
:1007930000010E3008060100808000800080808008
:1007A3000F300C030C300F0000808000808080002D
:1007B3000020312E0E312000808080000080808058
:1007C30080818E7018060100008080808080800008
:1007D3000021302C2221300000000000807C020226
:1007E30000000000003F404000000000FF00000048
:1007F30000000000FF0000000002027C80000000F7
:100803000040403F00000000000601010202040412
:1008130000000000000000000000F010101010FFA6
:1008230010101010F000000000000F04040404FF77
:10083300040404040F0000004040405F5555557503
:100843005555555F404040000040200F09498979C4
:100853000909090F2040000000FE02424ACA4A4A21
:10086300CA4A4A4202FE000000FF40504C43404047
:100873004F50505C40FF00000000F888888888FFD4
:1008830088888888F800000000001F080808087F8F
:10089300888888889F80F00080828282828282E2B8
:1008A300A2928A8682808000000000000040807F40
:1008B3000000000000000000101010FF10900888D6
:1008C3008888FF88888808000444827F01808040EC
:1008D300432C1028468180000010101010D030FFE8
:1008E30030D0121C1010000010080402010000FF99
:0808F3000000010204081000DE
:1012A100EF4E60157D087C07ED1DAA0470011C4AF4
:0912B10070F6EF1F70EA1E80E7E1
:0112BA002211
:1012BB008F09EF7006FD7FA61211E3E5096401703B
:0812CB0006FD7FA71211E322CA
:101239008F09EF700DFD7FC81211E3E4FD7FA11244
:1012490011E3E5096401700DFD7FC01211E3E4FDAE
:061259007FA01211E32248
:09131400D283D282C283C282227C
:07131D00C283D282D28322B9
:07132400D283D282C28222B3
:10125F00E4FEEEC39408748094805017C282EF307E
:10126F00E704D2838002C283D282C282EF25E0FFDD
:03127F000E80DFFF
:011282002249
:0A11D9001211E3E4FF1211E37F108E
:1011E300AC071213147F7812125F121324ED6004FC
:1011F3007F408002E4FF12125F121324AF04121225
:071203005F12132402131D0A
:10128300AB07ED24B0FFE4FD1211E3EB54F0C454BB
:0E1293000F4410FF1211E3EB540FFF0211E3A2
:1012EB00E4FD7F8D1211E37F141211E37FAF021126
:0112FB00E30F
:0C12FC00E4FD7F8D1211DE7FAE0211E3D5
:10120A00E4FBEBC39408748094805022EB24B0FF73
:10121A00E4FD1211D9E4FAEAC394807480948050F0
:0E122A000A7D01E4FF1211E30A80EC0B80D470
:011238002293
:040E21008F138D148A
:100E2500E516C313F9F517E4F518F519E516640881
:100E35007007F51A751B068029E516131313541F41
:100E4500FF7E00E51654077C0060047D0180027D6D
:100E550000ED2FFFEC3EFEE9FD7C00120FAB8E1A74
:100E65008F1BEB24E0FAAD14AF13121283E4F518CF
:100E7500F519C3E519951BE518951A5067E517FD92
:100E85007C00AE18AF19120FBDED4C700FE516645E
:100E9500086009AD140514AF13121283E516640832
:100EA500700F75F006EAA42403F582E5F03400809E
:100EB50013E5166410702D75F010EAA4242BF58245
:100EC500E5F03402F583E5822519F582E5833518C9
:100ED500F583E493FF7D011211E30519E51970927D
:040EE5000518808EDE
:010EE90022E6
:0412D3008F13A905C7
:1012D7007F017E00AD0119ED6009AD137C00120F8F
:0312E700AB80F1E8
:0112EA0022E1
:08109D008F098D0A8A0B8B0CF0
:1010A500E4F511F512E50E64087003751102E4F517
:1010B5000FE50FC3950D5069C3E50D950F14FD7F21
:1010C5000A1212D3AC0BAD0CCFCDCFCECCCE120FB6
:1010D500BD7C007D0A120FBD8D10E5127025E50D52
:1010E50014FFE50FC39F501BE5107014E50EC313E5
:1010F5002511850FF0A42509FF850E167B20801884
:10110500751201E50EC3132511850FF0A42509FFFE
:10111500E5102430FB850E16AD0A120E21050F8051
:011125009039
:0111260022A6
:0A118F008F098D0A8B0B8A0C890D65
:10119900E4F50FAB0BAA0CA90D850F82758300121C
:1011A9000F7E602BAF0F050F8F82758300120F7EA4
:1011B900FB850E16AD0AAF09120E21E50E64087003
:0F11C9000474068004E50EC3132509F50980C4DC
:0111D80022F4
:061012008F098D0AAA03FC
:10101800E50C131313541FFF7E00E50C54077C00E6
:1010280060047D0180027D00ED2FFFEC3EFEAD0CDB
:101038007C00120FAB8E0F8F10E4F50DF50EC3E593
:101048000E9510E50D950F504BE50CFD7C00AE0D8F
:10105800AF0E120FBDED4C7009AD0A050AAF0912AB
:101068001283E50C6410702CEAC43354E0241BF599
:1010780082E43408F583E582250EF582E583350D93
:10108800F583E493FF7D011211E3050EE50E70AEC2
:04109800050D80AA18
:01109C002231
:061127008F098D0A8B0BFD
:10112D00E4F510F511E50C131313541FFFE50C54E2
:10113D000760047E0180027E00EF2EF50CE4F512AF
:10114D00E512C3950C503AE512250AFDAF091212AE
:10115D0083E4F513E513C3950B5022AB0DAA0EA92D
:10116D000F0511E511AE107002051014F5828E8376
:10117D00120F7EFF7D011211E3051380D70512803A
:01118D00BFA2
:01118E00223E
:100EEA00C2847FC87E001212A1D284E4FD7FAE12B2
:100EFA0011D97F401211E37F811211E37FCF1211C2
:100F0A00E37FA11211E37FC81211E37FA61211E356
:100F1A007FA81211E37F3F1211E37FD31211E3E49A
:100F2A00FF1211E37FD51211E37F801211E37FD9FB
:100F3A001211E37FF11211E37FDA1211E37F121229
:100F4A0011E37FDB1211E37F401211E37F201211BC
:100F5A00E37F021211E37F8D1211E37F141211E372
:100F6A007FA41211E37FA61211E312120AE4FD7F95
:040F7A00AF0211E3CE
:1008FB005A484F4E474A494E475955414E003230A0
:10090B0031342F30352F30310041534349493A00B0
:10091B00434F44453A0000060AFE0AC600E000F0C9
:10092B0000F8000000000000FE7DBBC7EFEFEFEF0B
:10093B00EFEFEFC7BB7DFE000000000000000000E2
:10094B00000000000000000000000000000000009C
:10095B00000000000000000000000000000000008C
:10096B00000000000000000000000000000000007C
:10097B000000000000080CFEFE0C082060FEFE606C
:10098B00200000007848FE82BABA82BABA82BABA9C
:10099B0082BABA82FE0000000000000000000000D6
:1009AB000000000000000000000101010101F1F155
:1009BB00F1610101010100000000000000000000D6
:1009CB000000000000000000000000E0E0E0C0C0FC
:1009DB00C0C0C0C0C0C0C0C0C0C0C0C0C0E0E0E0AC
:1009EB0000000000000000000000000030F0E0E01C
:1009FB00C0C0C0C0C0C0C0C0C0C0C0C0C0C0C0C0EC
:100A0B00C0C0C0C0C0C0C0F0F0E0000000000000DB
:100A1B0000000000000000000000000000000000CB
:100A2B000000F8F8F0303030303030303030FFFF2D
:100A3B00FF30303030303030303030FCFCF83000AC
:100A4B000000000000000000000000FFFFFF6666D2
:100A5B00666666E6E6E6E6E66666666666FFFFFFE0
:100A6B0000000000000000000000000000FFFFFF7E
:100A7B000000000C0C0C0C0C0C0C0C0C0C0C0C0ECD
:100A8B000E0E8C80000000FFFFFF00000000000036
:100A9B00000000000000000000000000000000004B
:100AAB000000FFFFFF808080808080808080FFFFC0
:100ABB00FF80808080808080808080FFFFFF00002F
:100ACB0000000000000C0C0C0C0C0C0CFCFCEC6C77
:100ADB006C6C6C6C6D6F6F6F6C6C6C6CFCFCFC6C91
:100AEB000E0F0F0F0E0C00000000000000FFFFFFA9
:100AFB000606060606C6FEFE3E060606FEFEFE06BB
:100B0B0006070707070600FFFFFF000000000000B5
:100B1B0000000000000000000000000000000000CA
:100B2B000000070703010101010101010101FFFFA2
:100B3B00FF01010101010101010101070703000090
:100B4B00000000000000000000000080DFFFFFFC41
:100B5B00ECCC0C0CFCFCFC0C0C0C6CECDFDFCF803D
:100B6B0080000000000000000000000000FFFFFFFD
:100B7B0080C0E0F07C3F1F07000000007F7F7F609C
:100B8B006060607F7F7830FFFFFF00000000000097
:100B9B00000000000000000000000000006060602A
:100BAB0060606060606060606060606060607F7FFC
:100BBB007F6060606060606060606060606060600B
:100BCB006060606078787C6C6E6767636361616C92
:100BDB006C7C78787F7F7F6060606060606163674A
:100BEB006F7F7F7E6060606060606060607F7F7F32
:100BFB006D6D6D6C6C6C6C6C6C6C6C6C6C6C6C6C27
:100C0B006C6C6C6C6C6C6C7F7F7F60606000000048
:100C1B000000000000000048485C48C8485C484899
:100C2B00000000F0949890F0909894F00000000071
:100C3B000000E0F0101010F0E00000C0E0301030C9
:100C4B00E0C000002020F0F0000000007070109059
:100C5B00F070100000000000000000000000C0E079
:100C6B00301030E0C0000070701090F07010000079
:100C7B00000000000000000070701090F070100079
:100C8B000000C0201010101020C00000C020101059
:100C9B00101020C000000024150E04FF040E1524B4
:100CAB0000000017141414FF141414170000000094
:100CBB0000006070584C47636000001F3F6040604D
:100CCB003F1F000040407F7F4040000000007E7FC0
:100CDB0001000000006060600000000000001F3F8A
:100CEB006040603F1F000000007E7F01000000603D
:100CFB00606000000000000000007E7F010000002B
:100D0B0000001F2040404050205F80001F204040CB
:060D1B004050205F800043
:07132B0075E34075A7FF22E6
:100D210075082075FFDE75FFAD12132B120EEAE474
:100D3100FF1212BBE4FF121239750C40750DFF75DD
:100D41000E09750F217B80E4FDFF1211277FF47ED0
:100D5100011212A112120A750C10E4FBFDFF121010
:100D610012750C107B01E4FD7F12121012750C102C
:100D71007B02E4FD7F24121012750C107B03E4FD4D
:100D81007F36121012750C107B04E4FD7F4812109F
:100D910012750C107B05E4FD7F5A121012750C10B0
:100DA1007B06E4FD7F6C1210127BFF7A0879FB75DC
:100DB1000E107D027F0812118F7BFF7A0979097568
:100DC1000E107D047F1412118F7BFF7A097914753F
:100DD1000E107D06E4FF12118F7BFF7A09791B75D6
:100DE1000E107D067F3F12118F751610AB087D0620
:100DF1007F30120E210508E508D3947E4003750863
:100E010020E508FB7A00750D03750E107D067F67DE
:100E110012109D7FF47E011212A112120A020D3AE4
:03000000021308E0
:0C130800787FE4F6D8FD75811B020D21F2
:100F7E00BB010CE58229F582E5833AF583E0225028
:100F8E0006E92582F8E622BBFE06E92582F8E22272
:0D0F9E00E58229F582E5833AF583E493228C
:100FAB00EF8DF0A4A8F0CF8CF0A428CE8DF0A42E5A
:020FBB00FE2214
:100FBD00BC000BBE0029EF8DF084FFADF022E4CC18
:100FCD00F875F008EF2FFFEE33FEEC33FCEE9DECE1
:100FDD00984005FCEE9DFE0FD5F0E9E4CEFD22ED27
:100FED00F8F5F0EE8420D21CFEADF075F008EF2F71
:100FFD00FFED33FD4007985006D5F0F222C398FD62
:05100D000FD5F0EA22FE
:00000001FF
