:0300000002136D7B
:0C136D00787FE4F6D8FD75811C020D218C
:1008FB005A484F4E474A494E475955414E003230A0
:10090B0031342F30352F30310041534349493A00B0
:10091B00434F44453A000003050911FF118905C3F4
:10092B0000E000F000F8000000000000004428FF89
:10093B0011AA4400000000000000000000000000AD
:10094B00000000000000000000000000000000009C
:10095B00000000000000000000000000000000008C
:10096B00000000000000000000000000000000007C
:10097B0083013844829292740183000000000000CE
:10098B00007C44FF017D7D7D017D7D7D7D017D7D35
:10099B007D7D7D01FF0000000000000100010001D2
:1009AB000001000100010000000000000000000138
:1009BB00010000000000000000000000000000002B
:1009CB00000000000000000000000000000000001C
:1009DB00000000000000000000000000000000000C
:1009EB0000000000000000000000000000000000FC
:1009FB0001010000000000000101000000000000E8
:100A0B0000000001010101010101010101010101CE
:100A1B0001010101010000000000000000000000C6
:100A2B0000000000000000000000000000000000BB
:100A3B0000003F3F0303F31311111111111101F1C9
:100A4B00116181010101816111F10101010141413B
:100A5B00F10101010101C1211111111121C101018B
:100A6B0001014141F10101010101010101010111EB
:100A7B0011111111D33303033F3F0000000000009D
:100A8B00000000000000000000000000000000005B
:100A9B00000000000000000000000000000000004B
:100AAB00000000000000000000000000000000003B
:100ABB000000E0E000007F01010101010100007F67
:100ACB000000010618060100007F000000004040F6
:100ADB007F40400000001F2040404040201F00008E
:100AEB00000040407F40400000000060000000001C
:100AFB0040300C0300000000E0E0000000000000AC
:100B0B0000000000000000000000000000000000DA
:100B1B0000000000000000000000000000000000CA
:100B2B0000000000000000000000000000000000BA
:100B3B0000000707060606060404048444444484A4
:100B4B000404844444448404040484C4040404045A
:100B5B0084444444840404040404844444448404CA
:100B6B0004040404844444448404048444444484BA
:100B7B000404040406060606070700000000000034
:100B8B00000000000000000000000000000000005A
:100B9B00000000000000000000000000000000004A
:100BAB00000000000000000000000000000000003A
:100BBB0000000000000000000000001018141211CB
:100BCB0000000F1010100F000000101F100000008D
:100BDB00081012120D00001800000D1212120D0059
:100BEB000018000010181412110000101814121124
:100BFB0000000000000000000000000000000000EA
:100C0B0000000000000000000000000000000000D9
:100C1B0000000000000000000000000000000000C9
:100C2B0000000000000000000000000000000000B9
:100C3B0000000000000000000000000000000000A9
:100C4B000000000000000000000000000000000099
:100C5B000000808080808080808000000000000089
:100C6B000000000000000000000000000000000079
:100C7B000000000000000000000000000000000069
:100C8B000000000000000000000000000000000059
:100C9B00000000000000007F030C300C037F0000FD
:100CAB003854545800007C04047800003C40407CCD
:100CBB000000000000000000000000000000000029
:100CCB000000000000000000000000000000000019
:100CDB000000FFAAAAAA280800FF000000000000DD
:100CEB0000000000000000000000000000000000F9
:100CFB000000000000000000000000000000007F6A
:100D0B00030C300C037F0000264949493200007F59
:060D1B00020408107F0035
:100D2100750820120EE7E4FF1212FCE4FF12129A7A
:100D3100750C40750DFF750E09750F217B80E4FD63
:100D4100FF1211547FF47E011212E212123C750C53
:100D510010E4FBFDFF12103E750C107B01E4FD7FDA
:100D61001212103E750C107B02E4FD7F2412103E1E
:100D7100750C107B03E4FD7F3612103E750C107B61
:100D810004E4FD7F4812103E750C107B05E4FD7FE5
:100D91005A12103E750C107B06E4FD7F6C12103E5A
:100DA1007BFF7A0879FB750E107D027F081211BC5A
:100DB1007BFF7A097909750E107D047F141211BC2D
:100DC1007BFF7A097914750E107D06E4FF1211BCC0
:100DD1007BFF7A09791B750E107D067F3F1211BCCE
:100DE100751610AB087D067F30120E180508E50850
:100DF100D3947E4003750820E508FB7A00750D0346
:100E0100750E107D067F671210CA7FF47E011212E3
:070E1100E212123C020D3158
:100003000000000000000000002F000000000700B7
:10001300070000147F147F1400242A7F2A12006231
:1000230064081323003649552250000005030000DD
:1000330000001C224100000041221C000014083E65
:1000430008140008083E0808000000A0600000082B
:10005300080808080000606000000020100804027F
:10006300003E5149453E0000427F4000004261513D
:100073004946002141454B31001814127F100027D7
:1000830045454539003C4A4949300001710905039A
:1000930000364949493600064949291E00003636CB
:1000A300000000005636000000081422410000142E
:1000B300141414140000412214080002015109060B
:1000C30000324959513E007C1211127C007F49498C
:1000D3004936003E41414122007F4141221C007FBD
:1000E30049494941007F09090901003E4149497ACB
:1000F300007F0808087F0000417F41000020404145
:100103003F01007F08142241007F40404040007FB0
:10011300020C027F007F0408107F003E4141413EF4
:10012300007F09090906003E4151215E007F09193C
:1001330029460046494949310001017F0101003F39
:100143004040403F001F2040201F003F4038403FB9
:10015300006314081463000708700807006151491D
:10016300454300007F41410000552A552A550000B0
:1001730041417F000004020102040040404040402E
:10018300000001020400002054545478007F4844C6
:10019300443800384444442000384444487F0038FD
:1001A3005454541800087E0901020018A4A4A47C26
:1001B300007F080404780000447D400000408084F0
:1001C3007D00007F102844000000417F4000007C38
:1001D30004180478007C0804047800384444443844
:1001E30000FC242424180018242418FC007C080490
:1001F300040800485454542000043F444020003C69
:100203004040207C001C2040201C003C4030403CEF
:10021300004428102844001CA0A0A07C004464547F
:100223004C441414141414140000000000000000C3
:100233000000000000000000000000F800000000C3
:10024300000000333000000000100C06100C060004
:10025300000000000000000040C07840C07840006B
:10026300043F04043F040400007088FC08300000CD
:10027300001820FF211E0000F008F000E018000025
:1002830000211C031E211E0000F0088870000000DE
:100293001E2123241927211010160E000000000030
:1002A3000000000000000000000000E0180402004D
:1002B300000000071820400000020418E0000000BE
:1002C3000040201807000000404080F080404000BC
:1002D3000202010F01020200000000F00000000012
:1002E3000101011F010101000000000000000000E6
:1002F30080B070000000000000000000000000005B
:1003030000010101010101010000000000000000E3
:10031300003030000000000000000000806018047E
:10032300006018060100000000E010080810E0005B
:10033300000F102020100F00001010F80000000024
:100343000020203F2020000000700808088870006B
:1003530000302824222130000030088888483000EB
:100363000018202020110E000000C02010F800000B
:1003730000070424243F240000F8088888080800A4
:100383000019212020110E0000E0108888180000B9
:10039300000F112020110E0000380808C83808008B
:1003A3000000003F0000000000708808088870000B
:1003B300001C222121221C0000E010080810E0008C
:1003C3000000312222110F00000000C0C000000015
:1003D300000000303000000000000080000000003A
:1003E3000000806000000000000080402010080032
:1003F30000010204081020004040404040404000FB
:1004030004040404040404000008102040800000D5
:100413000020100804020100007048080808F000DA
:100423000000003036010000C030C828E810E000AA
:100433000718272423140B000000C038E000000035
:10044300203C23020227382008F88888887000009F
:10045300203F202020110E00C03008080808380073
:10046300071820202010080008F808080810E000EA
:10047300203F202020100F0008F88888E80810008B
:10048300203F20202320180008F88888E80810005F
:10049300203F200003000000C03008080838000097
:1004A30007182020221E020008F808000008F80898
:1004B300203F210101213F20000808F8080800001F
:1004C3000020203F2020000000000808F808080052
:1004D300C08080807F00000008F888C028180800CA
:1004E300203F20012638200008F808000000000003
:1004F300203F20202020300008F8F800F8F80800FA
:10050300203F003F003F200008F830C00008F808F3
:10051300203F200007183F00E01008080810E00003
:100523000F10202020100F0008F808080808F0001A
:10053300203F210101010000E01008080810E0003D
:100543000F18242438504F0008F8888888887000D2
:10055300203F2000030C3020007088080808380072
:100563000038202121221C00180808F80808180068
:100573000000203F2000000008F808000008F808E9
:10058300001F202020201F000878880000C838089A
:10059300000007380E010000F80800F80008F80012
:1005A300033C0700073C03000818688080681808AC
:1005B30020302C03032C30200838C800C83808002A
:1005C3000000203F2000000010080808C838080079
:1005D3002038262120201800000000FE020202001D
:1005E3000000007F40404000000C30C000000000CD
:1005F300000000010638C00000020202FE000000F5
:10060300004040407F00000000000402020204009A
:1006130000000000000000000000000000000000D7
:1006230080808080808080800002020400000000BF
:1006330000000000000000000000808080800000B7
:100643000019242222223F2008F8008080000000A5
:10065300003F112020110E00000000808080000068
:10066300000E112020201100000000808088F80077
:10067300000E112020103F200000808080800000A9
:10068300001F222222221300008080F0888888180D
:100693000020203F20200000000080808080800018
:1006A300006B94949493600008F8008080800000AD
:1006B300203F210000203F20008098980000000088
:1006C3000020203F202000000000008098980000B8
:1006D30000C08080807F000008F8000080808000D8
:1006E300203F24022D302000000808F800000000FD
:1006F3000020203F202000008080808080808000B8
:10070300203F20003F20003F808000808080000049
:10071300203F210000203F200000808080800000D7
:10072300001F202020201F00808000808000000008
:1007330080FFA12020110E00000000808080800037
:10074300000E112020A0FF80808080008080800028
:1007530020203F2120000100000080808080800055
:100763000033242424241900008080E080800000CA
:100773000000001F20200000808000000080800017
:10078300001F202020103F20808080000080808078
:1007930000010E3008060100808000800080808008
:1007A3000F300C030C300F0000808000808080002D
:1007B3000020312E0E312000808080000080808058
:1007C30080818E7018060100008080808080800008
:1007D3000021302C2221300000000000807C020226
:1007E30000000000003F404000000000FF00000048
:1007F30000000000FF0000000002027C80000000F7
:100803000040403F00000000000601010202040412
:1008130000000000000000000000F010101010FFA6
:1008230010101010F000000000000F04040404FF77
:10083300040404040F0000004040405F5555557503
:100843005555555F404040000040200F09498979C4
:100853000909090F2040000000FE02424ACA4A4A21
:10086300CA4A4A4202FE000000FF40504C43404047
:100873004F50505C40FF00000000F888888888FFD4
:1008830088888888F800000000001F080808087F8F
:10089300888888889F80F00080828282828282E2B8
:1008A300A2928A8682808000000000000040807F40
:1008B3000000000000000000101010FF10900888D6
:1008C3008888FF88888808000444827F01808040EC
:1008D300432C1028468180000010101010D030FFE8
:1008E30030D0121C1010000010080402010000FF99
:0808F3000000010204081000DE
:1012E200EF4E60157D087C07ED1DAA0470011C4AB3
:0912F20070F6EF1F70EA1E80E7A0
:0112FB0022D0
:1012FC008F09EF7006FD7FA6121213E509640170C9
:08130C0006FD7FA71212132257
:10129A008F09EF700DFD7FC8121213E4FD7FA112B2
:1012AA001213E5096401700DFD7FC0121213E4FDEB
:0612BA007FA012121322B6
:081383007F01AE071FEE70FAB6
:01138B00223F
:0F134100D291D290121383C291121383C29022C1
:0A137900C291D290121383D2912288
:0F135000D291121383D290121383C2900213838F
:02126E00AD07CA
:10127000E4FCECC3940874809480501DC290ED305F
:10128000E704D2918002C291121383D29012138389
:09129000C290ED25E0FD0C80D9AF
:011299002232
:0D120600121213E4FDFF121213E4FD7F101D
:10121300AB05AA071213417F7812126E121350EB1B
:1012230060047F408002E4FF12126E121350AF027B
:0912330012126E1213500213791D
:1012C000A907ED24B0FFE4FD121213E954F0C45451
:1012D0000F4410FFE4FD121213E9540FFFE4FD0266
:0212E0001213E7
:10132C00E4FD7F8D121213E4FD7F14121213E4FD01
:05133C007FAF02121357
:0E135F00E4FD7F8D12120CE4FD7FAE0212132E
:10123C00E4F9E9C39408748094805025E924B0FF44
:10124C00E4FD121206E4F509C3E509948074809458
:10125C0080500B7D01E4FF121213050980EA09800E
:01126C00D1B0
:01126D00225E
:040E18008F138D1493
:100E1C00E4F517E516C313FDF518E4F519F51AE515
:100E2C001664087007F51B751C068029E51613134C
:100E3C0013541FFF7E00E5165407600590000180D7
:100E4C0003900000E5822FFFE5833EFE7C00120F2D
:100E5C00D78E1B8F1CEB24E0F517AD14AF131212B9
:100E6C00C0E4F519F51AC3E51A951CE519951B5044
:100E7C0069E518FD7C00AE19AF1A120FE9ED4C7044
:100E8C000FE51664086009AD140514AF131212C0F7
:100E9C00E5166408701075F006E517A42403F582B6
:100EAC00E5F034008014E5166410702E75F010E532
:100EBC0017A4242BF582E5F03402F583E582251A7C
:100ECC00F582E5833519F583E493FF7D0112121346
:0A0EDC00051AE51A70900519808CC4
:010EE60022E9
:041314008F13A90585
:101318007F017E00AD0119ED6009AD137C00120F4D
:03132800D780F17A
:01132B00229F
:0810CA008F098D0A8A0B8B0CC3
:1010D200E4F511F512E50E64087003751102E4F5EA
:1010E2000FE50FC3950D5069C3E50D950F14FD7FF4
:1010F2000A121314AC0BAD0CCFCDCFCECCCE120F47
:10110200E97C007D0A120FE98D10E5127025E50DCC
:1011120014FFE50FC39F501BE5107014E50EC313B7
:101122002511850FF0A42509FF850E167B20801856
:10113200751201E50EC3132511850FF0A42509FFD1
:10114200E5102430FB850E16AD0A120E18050F802D
:01115200900C
:011153002279
:0A11BC008F098D0A8B0B8A0C890D38
:1011C600E4F50FAB0BAA0CA90D850F8275830012EF
:1011D6000FAA602BAF0F050F8F82758300120FAA1F
:1011E600FB850E16AD0AAF09120E18E50E640870DF
:0F11F6000474068004E50EC3132509F50980C4AF
:0112050022C6
:06103E008F098D0A8B0BE7
:10104400E50C131313541FFF7E00E50C54077C00BA
:1010540060047D0180027D00ED2FFFEC3EFEAD0CAF
:101064007C00120FD78E0F8F10E4F50DF50EC3E53B
:101074000E9510E50D950F504CE50CFD7C00AE0D62
:10108400AF0E120FE9ED4C7009AD0A050AAF091253
:1010940012C0E50C6410702DE50BC43354E0241B1E
:1010A400F582E43408F583E582250EF582E583357F
:1010B4000DF583E493FF7D01121213050EE50E7006
:0510C400AD050D80A93F
:0110C9002204
:061154008F098D0A8B0BD0
:10115A00E4F510F511E50C131313541FFFE50C54B5
:10116A000760047E0180027E00EF2EF50CE4F51282
:10117A00E512C3950C503AE512250AFDAF09121281
:10118A00C0E4F513E513C3950B5022AB0DAA0EA9C3
:10119A000F0511E511AE107002051014F5828E8349
:1011AA00120FAAFF7D01121213051380D7051280B0
:0111BA00BF75
:0111BB002211
:100EE700C2927FC87E001212E2D292E4FD7FAE1258
:100EF7001206E4FD7F40121213E4FD7F81121213E4
:100F0700E4FD7FCF121213E4FD7FA1121213E4FD5B
:100F17007FC8121213E4FD7FA6121213E4FD7FA807
:100F2700121213E4FD7F3F121213E4FD7FD3121256
:100F370013E4FDFF121213E4FD7FD5121213E4FD33
:100F47007F80121213E4FD7FD9121213E4FD7FF1A3
:100F5700121213E4FD7FDA121213E4FD7F1212124C
:100F670013E4FD7FDB121213E4FD7F40121213E43A
:100F7700FD7F20121213E4FD7F02121213E4FD7F9E
:100F87008D121213E4FD7F14121213E4FD7FA412D5
:100F97001213E4FD7FA612121312123CE4FD7FAF79
:030FA70002121320
:100FAA00BB010CE58229F582E5833AF583E02250FC
:100FBA0006E92582F8E622BBFE06E92582F8E22246
:0D0FCA00E58229F582E5833AF583E4932260
:100FD700EF8DF0A4A8F0CF8CF0A428CE8DF0A42E2E
:020FE700FE22E8
:100FE900BC000BBE0029EF8DF084FFADF022E4CCEC
:100FF900F875F008EF2FFFEE33FEEC33FCEE9DECB5
:10100900984005FCEE9DFE0FD5F0E9E4CEFD22EDFA
:10101900F8F5F0EE8420D21CFEADF075F008EF2F44
:10102900FFED33FD4007985006D5F0F222C398FD35
:051039000FD5F0EA22D2
:00000001FF
